:020000040800F2
:1000000000000220E9100008E9080008EB080008D9
:10001000ED080008EF080008F108000800000000E3
:10002000000000000000000000000000F3080008CD
:10003000F508000800000000F7080008F9080008AB
:100040003911000839110008391100083911000868
:100050003911000839110008391100083911000858
:100060003911000839110008391100083911000848
:100070003911000839110008391100083911000838
:10008000391100083911000839110008000000007A
:10009000000000000000000000000000391100080E
:1000A0003911000839110008391100083911000808
:1000B00039110008391100083911000839110008F8
:1000C00039110008391100083911000839110008E8
:1000D000391100083911000839110008000000002A
:1000E000391100083911000839110008000000001A
:1000F00000000000000000000000000039110008AE
:1001000000000000391100083911000839110008F9
:1001100000000000000000000000000000000000DF
:100120003911000839110008391100083911000887
:10013000391100080000000000000000000000006D
:10014000000000000000000000000000391100085D
:100150003911000839110008391100083911000857
:1001600039110008391100080000000000000000EB
:10017000000000000000000000000000000000007F
:10018000000000003911000800000000000000001D
:080190003911000839110008C3
:1001A000034613F8012B002AFBD1181A01387047B7
:1001B00001F0FF01102A2BDB10F0070F08D010F818
:1001C000013B013A8B422DD010F0070F42B3F6D11C
:1001D000F0B441EA012141EA014122F007047FF035
:1001E00000070023F0E80256083C85EA010586EA8C
:1001F000010685FA47F5A3FA87F586FA47F6A5FAC8
:1002000087F68EB9EED1F0BC01F0FF0102F00702D3
:1002100032B110F8013B013A83EA010313B1F8D17E
:100220000020704701387047002D06BF354603385F
:10023000073815F0010F07D1013015F4807F02BF98
:10024000013015F4C03F0130F0BC0138704700BFE9
:1002500053B94AB9002908BF00281CBF4FF0FF312D
:100260004FF0FF3000F00CB8ADF1080C6DE904CE92
:1002700001F010FCDDF804E0DDE9022304B0704772
:10028000704700BF10B5054C237833B9044B13B148
:100290000448AFF300800123237010BD5C000020F0
:1002A00000000000501D000808B5034B1BB10349B6
:1002B0000348AFF3008008BD00000000600000208C
:1002C000501D0008064A82FB0032C317C3EBA2038D
:1002D00003EB8302A0EB420040EA0310C0B2704778
:1002E00067666666030903EB830300F00F0000EB0B
:1002F0004300704710B582B0044600238DF80030EB
:100300000068FFF7DFFF8DF801006068FFF7DAFF94
:100310008DF80200A068FFF7D5FF8DF80300E068B4
:10032000FFF7D0FF8DF804002069FFF7CBFF8DF8B1
:1003300005006069FFF7C6FF8DF80600A069FFF7AA
:10034000C1FF8DF8070008226946682000F00AF90D
:1003500002B010BD10B584B004460723009302AB71
:1003600001220021682000F087F99DF80800FFF7BE
:10037000B9FF20609DF80900FFF7B4FF60609DF8A9
:100380000A00FFF7AFFFA0609DF80B00FFF7AAFF80
:10039000E0609DF80C00FFF7A5FF20619DF80D00BF
:1003A000FFF7A0FF60619DF80E00FFF79BFFA061C3
:1003B00004B010BD1A4A136B43F4001343F0010359
:1003C0001363136C43F400331364164B1A6822F062
:1003D000F0021A601A6842F0A0021A605A6822F00D
:1003E0000C025A609A6842F050029A601A6A42F40B
:1003F000EE421A62A3F5DE33DA6842F40052DA60A4
:10040000DA6822F48052DA601A6922F440521A61E2
:100410005A6942F080025A6140F283629A607047E2
:100420000038024000000240154B164AC3F8A820CD
:10043000C3F8AC00C3F8A410D3F8A02042F00062C7
:1004400042F48A62C3F8A0200F49CA6842F0080249
:10045000CA60D3F8A02042F00102C3F8A020084BE4
:100460005B6813F4001FFAD0054BDA6842F40012FF
:10047000DA60D3F8A02022F00102C3F8A020704770
:10048000006002400444004000440040184A136BDE
:1004900043F002031363174B196841F420211960DC
:1004A000596841F440715960996841F4202199607C
:1004B000596A41F044015962136C43F40013136408
:1004C0000D4B1A6842F400421A601A6822F4004286
:1004D0001A605A6842F010025A60DA6942F44872AF
:1004E000DA6111221A621A6842F001021A6070473A
:1004F00000380240000402400054004082B0084A24
:10050000136843F480731360054B5B6913F0010FAC
:10051000FAD0034B5B699BB2ADF8063002B070476E
:100520000054004082B00A4B1A6842F480621A609C
:100530001861074B5B6913F0020FFAD0044A536944
:10054000926913439BB2ADF8063002B0704700BF0A
:1005500000540040024A136843F40073136070476C
:100560000054004070B506460D461446FFF7C6FF1E
:10057000700000F0FE00FFF7D5FF20460AE0084BB0
:100580005B6913F0800FFAD0231AEA5C044B1A61FE
:10059000013880B20028F2D1FFF7DCFF70BD00BF48
:1005A00000540040F0B583B004460E461546FFF7F0
:1005B000A5FF012D22D1630043F001032D4A1361F1
:1005C0002C4B5B6913F0020FFAD02A4B1A6822F405
:1005D00080621A605A6992B2ADF806209B699BB29C
:1005E000ADF80630FFF7B6FF224B5B6913F0400F02
:1005F000FAD0204B1B69337003B0F0BD600040F0AF
:100600000100C0B2FFF78EFF2C4611E0642000F01D
:10061000D3F9184B5B6913F0400FFAD0154B1969E9
:100620002A1BB1541A6842F480621A60013CA4B2D9
:10063000032CEBD80F4B5B6913F0040FFAD00D4B72
:100640001A6822F480621A601A692B1BF254671E22
:10065000BFB2084B5B6913F0040FFAD0FFF77AFFC3
:10066000044A1369EF1BF355A31E9BB21269ED1ADE
:100670007255C1E700540040F8B507461D46BDF865
:100680001860012A0BD014460B0A2B706970FFF713
:1006900035FF780000F0FE00FFF744FF1BE0197003
:1006A000FFF72CFF780000F0FE00FFF73BFF0E4B3A
:1006B0005B6913F0800FFAD02A780B4B1A610CE0BB
:1006C0000949496911F0800FFAD0331BEA5C064BE7
:1006D0001A61013CA4B2002CF2D1324629463846B8
:1006E000FFF760FFF8BD00BF0054004084B0002257
:1006F0000092154B196B41F004011963196B01F05D
:100700000401009100990192196B41F08001196375
:10071000196B01F08001019101990292196B41F06E
:1007200001011963196B01F0010102910299039211
:100730001A6B42F002021A631B6B03F0020303936D
:10074000039B04B0704700BF0038024001E000BFC7
:1007500001380028FBD1704772B6FEE700B595B0AE
:100760003022002108A800F009FD00230393049320
:1007700005930693079301931E4A116C41F0805133
:100780001164126C02F080520192019A02931A4A8B
:10079000116841F440411160126802F44042029233
:1007A000029A0222089201210B9110210C910E92C3
:1007B0000F93082310934023119312920423139351
:1007C00008A800F077F980B90F2303930221049160
:1007D000002305934FF4A0520692079303A800F05C
:1007E000D3FB20B915B05DF804FBFFF7B5FFFFF7A9
:1007F000B3FF00BF003802400070004000B583B076
:10080000224C0A232360342363601323A3601C2338
:1008100023610723E360052363611723A36100F0CD
:100820009FF8FFF79BFFFFF761FFFFF7C3FDFFF79F
:100830002DFE2046FFF75EFD1548FFF787FF154C9C
:100840002046FFF787FD144D236800936368A26874
:100850001249284600F072FC2846FFF7A1FC81B23D
:100860002846FFF7E1FDA3690093636922690C49FB
:10087000284600F063FC2846FFF792FC81B2284628
:10088000FFF7D2FD0748FFF761FFD8E7940000208B
:1008900000E1F50578000020B0000020681D000888
:1008A0007C1D00088096980000B583B0002100915F
:1008B0000C4B5A6C42F480425A645A6C02F48042E7
:1008C0000092009A01911A6C42F080521A641B6CDB
:1008D00003F080530193019B072000F0B5F803B0AB
:1008E0005DF804FB00380240FEE7FEE7FEE7FEE7A6
:1008F000FEE770477047704708B500F04BF808BD39
:10090000034AD2F8883043F47003C2F88830704745
:1009100000ED00E010B504460E4B1A784FF47A73E0
:10092000B3FBF2F30C4A1068B0FBF3F000F0AEF842
:1009300068B90F2C01D901200AE0002221464FF0AE
:10094000FF3000F093F8054B1C60002000E0012010
:1009500010BD00BF0400002000000020080000209F
:1009600008B50B4B1A6842F400721A601A6842F418
:1009700080621A601A6842F480721A60032000F0E4
:1009800063F80020FFF7C6FFFFF78EFF002008BDC9
:10099000003C0240034A1168034B1B780B44136070
:1009A000704700BFC400002004000020014B1868FD
:1009B000704700BFC400002038B50446FFF7F6FFBB
:1009C0000546B4F1FF3F02D0044B1B781C44FFF7EF
:1009D000EDFF401BA042FAD338BD00BF0400002049
:1009E000002808DB0901C9B200F1604000F5614050
:1009F00080F80013704700F00F000901C9B2014BE5
:100A00001954704714ED00E000B500F00700C0F184
:100A1000070CBCF1040F28BF4FF0040C031D062B7C
:100A20000FD9C31E4FF0FF3E0EFA0CF021EA000171
:100A300099400EFA03FE22EA0E0241EA02005DF836
:100A400004FB0023EEE70000074AD36823F4E063C9
:100A50001B041B0C000200F4E060034343F0BF637F
:100A600043F40033D360704700ED00E010B5044656
:100A7000054BD868C0F30220FFF7C6FF01462046A9
:100A8000FFF7AEFF10BD00BF00ED00E00138B0F190
:100A9000807F0BD24FF0E0235861054AF02182F8A5
:100AA00023100020986107221A61704701207047C7
:100AB00000ED00E0002800F0E08170B582B004464F
:100AC000036813F0010F3BD09F4B9B6803F00C03AE
:100AD000042B2CD09C4B9B6803F00C03082B21D0DB
:100AE0006368B3F5803F4FD0B3F5A02F52D0964B3B
:100AF0001A6822F480321A601A6822F480221A607E
:100B00006368002B50D0FFF751FF05468E4B1B68E2
:100B100013F4003F14D1FFF749FF401B6428F5D9B7
:100B20000320B1E1884B5B6813F4800FD8D0864B6B
:100B30001B6813F4003F03D06368002B00F09F8113
:100B4000236813F0020F54D07F4B9B6813F00C0FF7
:100B50003ED07D4B9B6803F00C03082B33D0E36839
:100B6000002B68D0794B01221A60FFF71FFF054662
:100B7000754B1B6813F0020F54D1FFF717FF401B92
:100B80000228F5D903207FE16F4A136843F48033CC
:100B90001360B5E76C4B1A6842F480221A601A6839
:100BA00042F480321A60ABE7FFF700FF0546664B60
:100BB0001B6813F4003FC3D0FFF7F8FE401B642806
:100BC000F5D9032060E1604B5B6813F4800FC6D158
:100BD0005D4B1B6813F0020F03D0E368012B40F05C
:100BE0005081594A136823F0F803216943EAC1038D
:100BF0001360236813F0080F42D063696BB3534B43
:100C00000122C3F8802EFFF7D1FE05464E4B5B6FE5
:100C100013F0020F34D1FFF7C9FE401B0228F5D9AB
:100C2000032031E1484A136823F0F803216943EABD
:100C3000C1031360DDE7454B00221A60FFF7B6FEE3
:100C40000546414B1B6813F0020FD2D0FFF7AEFEF2
:100C5000401B0228F5D9032016E13C4B0022C3F8C3
:100C6000802EFFF7A3FE0546374B5B6F13F0020F94
:100C700006D0FFF79BFE401B0228F5D9032003E1B5
:100C8000236813F0040F77D02F4B1B6C13F0805F99
:100C900033D1002301932C4B1A6C42F080521A641A
:100CA0001B6C03F080530193019B0125284B1B68AB
:100CB00013F4807F23D0A368012B34D0052B38D0C8
:100CC000214B1A6F22F001021A671A6F22F00402F8
:100CD0001A67A368002B3DD0FFF768FE06461A4B43
:100CE0001B6F13F0020F46D1FFF760FE801B41F22D
:100CF00088339842F3D90320C6E00025D6E7144A8A
:100D0000136843F480731360FFF750FE0646104BE0
:100D10001B6813F4807FCED1FFF748FE801B0228AA
:100D2000F5D90320B0E0084A136F43F001031367BD
:100D3000CFE7054B1A6F42F004021A671A6F42F0B0
:100D400001021A67C5E700BF0038024000004742B1
:100D500000700040FFF72AFE0646524B1B6F13F04F
:100D6000020F08D0FFF722FE801B41F28833984221
:100D7000F3D9032088E0EDB9A369002B00F083804C
:100D8000484A926802F00C02082A51D0022B17D070
:100D9000454B00221A66FFF709FE0446414B1B68CB
:100DA00013F0007F42D0FFF701FE001B0228F5D9A7
:100DB000032069E03B4A136C23F080531364DBE7A4
:100DC000394B00221A66FFF7F1FD0546354B1B68CB
:100DD00013F0007F06D0FFF7E9FD401B0228F5D98C
:100DE000032051E0E369226A1343626A43EA8213F3
:100DF000A26A5208013A43EA0243E26A43EA026302
:100E0000284A5360284B01221A66FFF7CFFD04469B
:100E1000244B1B6813F0007F06D1FFF7C7FD001BB2
:100E20000228F5D903202FE000202DE000202BE040
:100E3000012B2BD01B4B5B6803F48001E2699142CC
:100E400026D103F03F02216A8A4223D1616A47F624
:100E5000C0721A40B2EB811F1ED103F44031A26A66
:100E60005208013AB1EB024F18D103F07063E26A05
:100E7000B3EB026F14D1002006E00120704701207F
:100E800002E0012000E0002002B070BD0120FBE77D
:100E90000120F9E70120F7E70120F5E70120F3E75A
:100EA0000120F1E7003802400000474208B5334B0B
:100EB0009B6803F00C03042B5BD0082B5BD12F4BFA
:100EC0005A6802F03F025B6813F4800F2CD02B4B62
:100ED0005868C0F388104FEA401CBCEB000C6EEB66
:100EE0000E0E4FEA8E1343EA9C634FEA8C11B1EB6E
:100EF0000C0163EB0E03DB0043EA5173C90011EBF5
:100F0000000C43F10003590200234FEA4C2041EA50
:100F1000DC51FFF79DF9194B5B68C3F301430133C3
:100F20005B00B0FBF3F027E0144B5868C0F3881067
:100F30004FEA401CBCEB000C6EEB0E0E4FEA8E131A
:100F400043EA9C634FEA8C11B1EB0C0163EB0E0397
:100F5000DB0043EA5173C90011EB000C43F10003BD
:100F6000990200234FEA8C2041EA9C51FFF770F967
:100F7000D1E7034800E0034808BD00BF0038024045
:100F800000127A000024F400002800F09B8070B565
:100F90000D4604464F4B1B6803F007038B4208D2F3
:100FA000CBB24C4A1370136803F007038B4240F036
:100FB0008B80236813F0020F17D013F0040F04D0B6
:100FC000454A936843F4E0539360236813F0080F95
:100FD00004D0414A936843F4604393603E4A936867
:100FE00023F0F003A1680B439360236813F0010F13
:100FF00032D06368012B21D09A1E012A25D9364AA6
:10100000126812F0020F61D033498A6822F003029D
:1010100013438B60FFF7CAFC06462F4B9B6803F017
:101020000C036268B3EB820F16D0FFF7BFFC801B86
:1010300041F288339842F0D9032042E0264A1268F0
:1010400012F4003FE0D101203BE0234A126812F085
:10105000007FD9D1012034E01E4B1B6803F0070349
:10106000AB4207D9EAB21B4B1A701B6803F00703A7
:10107000AB422DD1236813F0040F06D0164A9368B3
:1010800023F4E053E1680B439360236813F0080FE7
:1010900007D0114A936823F46043216943EAC103EE
:1010A0009360FFF703FF0C4B9B68C3F303130B4ADA
:1010B000D35CD8400A4B18600A4B1868FFF72AFC2B
:1010C000002070BD012070470120FAE70120F8E7F9
:1010D0000120F6E7003C024000380240901D000865
:1010E0000000002008000020DFF834D00D480E4931
:1010F0000E4A002302E0D458C4500433C4188C4272
:10110000F9D30B4A0B4C002301E013600432A242D6
:10111000FBD3FFF7F5FB00F039F8FFF76FFB7047E3
:1011200000000220000000205C000020E41D0008F8
:101130005C00002014020020FEE700000EB400B5A1
:101140009CB01DAB029006906FF0004109480791DA
:101150000491094953F8042B05910068019302A9F1
:1011600000F086F9029B00221A701CB05DF804EBB7
:1011700003B070470C0000200802FFFF0244034642
:10118000934200D1704703F8011BF9E770B50D4D8C
:101190000D4C641BA4100026A64209D10B4D0C4C2B
:1011A00000F0D6FD641BA4100026A64205D170BD38
:1011B00055F8043B98470136EEE755F8043B98474D
:1011C0000136F2E7DC1D0008DC1D0008DC1D00080C
:1011D000E01D00087047704738B50546002941D02A
:1011E00051F8043C0C1F002BB8BFE41800F0D8F8ED
:1011F0001D4A136833B9636014602846BDE838405F
:1012000000F0D4B8A34208D9206821188B4201BF4E
:1012100019685B6809182160EDE71A465B680BB135
:10122000A342FAD911685018A0420BD1206801449A
:10123000501883421160E0D118685B68536008441D
:101240001060DAE702D90C232B60D6E7206821185A
:101250008B4204BF19685B68636004BF0918216092
:101260005460CAE738BD00BF0C02002070B50F4EB5
:101270000C463168054611B900F0AAFB30602146E2
:10128000284600F0A5FB431C03D14FF0FF34204655
:1012900070BDC41C24F00304A042F8D0211A2846D3
:1012A00000F096FB0130F2D1EFE700BF080200200A
:1012B0002DE9F041CD1C25F0030508350C2D38BF74
:1012C0000C25002D064601DBA94204D90C2333600E
:1012D0000020BDE8F081314F00F062F83B681C4609
:1012E00044BB29463046FFF7C1FF431C044650D19A
:1012F0003C682146002941D1002C44D02368304667
:1013000004EB030800F064FB80453CD121686D1AB2
:1013100029463046FFF7AAFF013034D023682B441A
:1013200023603B68002B36D05A68A24229D10022A4
:101330005A600EE02268521B1DD40B2A16D961197F
:10134000A342256018BF5960636808BF39606251C5
:101350004B60304600F02AF804F10B00231D20F00A
:101360000700C21AB5D01B1AA350B2E7A3426268A5
:10137000DED13A60EDE723466468B1E70C46496880
:10138000B8E71346CEE70C233360304600F00EF882
:101390009EE70560DDE75B60FFDE00BF0C0200201A
:1013A0000148FFF717BF00BF040200200148FFF704
:1013B00012BF00BF040200202DE9F0478E681F46CF
:1013C000BE420B6882460C4690462DD8B1F90C20DF
:1013D00012F4906F26D06569096905EB4505A3EB0A
:1013E000010905EBD5757B1C4B446D109D4238BF40
:1013F0001D46530527D52946FFF75AFF064660B319
:1014000021694A4600F0F4FAA38923F4906343F07B
:101410008003A381266165614E44A5EB0905266022
:10142000A5603E46BE4200D93E462068324641464F
:1014300000F0B4FAA3689B1BA360236833442360C5
:101440000020BDE8F0872A4600F0E0FA06460028B2
:10145000E0D121695046FFF7BFFE0C23CAF80030E7
:10146000A38943F04003A3814FF0FF30E9E7000078
:101470002DE9F04F98468B891B069DB007460D4617
:10148000144610D50B6973B94021FFF711FF28608E
:10149000286130B90C233B604FF0FF301DB0BDE830
:1014A000F08F40236B610023099320238DF82930AE
:1014B000CDF80C803023DFF89C818DF82A304FF076
:1014C000010923469A4613F8012B0AB1252AF9D1BE
:1014D000BAEB040B0BD05B46224629463846FFF791
:1014E0006BFF013000F0A780099A5A4409929AF8DC
:1014F0000030002B00F09F8000234FF0FF32CDE939
:1015000005230AF1010A049307938DF853301A93C7
:101510005446052214F8011B4E48FEF749FE049A72
:10152000D8B9D00644BF20238DF85330110744BFEB
:101530002B238DF853309AF800302A2B15D0079AB8
:10154000544600204FF00A0C214611F8013B303B75
:10155000092B4BD9B0B1079214E0A0EB080309FAAC
:1015600003F313430493A246D2E7039B191D1B68A0
:101570000391002BBBBF5B4242F00202079307932B
:10158000B8BF049223782E2B0AD163782A2B32D14C
:10159000039B1A1D1B68039243EAE373023405930D
:1015A000DFF8C0A0217803225046FEF701FE38B1D3
:1015B000049BA0EB0A0040228240134301340493B1
:1015C00014F8011B24488DF828100622FEF7F0FDC0
:1015D000002836D0214B1BBB039B073323F00703A6
:1015E00008330393099B334409936AE70CFB0232E7
:1015F0000C460120A8E700230134059319464FF05B
:101600000A0C204610F8012B303A092A03D9002B86
:10161000C6D00591C4E70CFB012104460123F0E785
:1016200003AB00932A460E4B04A93846AFF3008063
:10163000421C0646D6D1AB895B063FF52DAF099813
:101640002CE703AB00932A46054B04A9384600F06B
:1016500079F8EDE7A01D0008AA1D000800000000B1
:10166000B9130008A61D00082DE9F0471646984654
:101670008A680B69DDF820909342B8BF1346336047
:1016800091F8432007460C460AB1013333602368C2
:10169000990642BF336802333360256815F00605AA
:1016A00006D104F1190AE36832689B1AAB4226DCC2
:1016B00094F843302268003B18BF012392062BD4D4
:1016C00004F1430241463846C84701301ED0236822
:1016D000226903F00603042B02BFE5683368ED1AA4
:1016E000A3680CBF25EAE57500259342C4BF9B1A89
:1016F000ED1800261A34B5421AD1002008E0012363
:10170000524641463846C847013003D14FF0FF30BA
:10171000BDE8F0870135C6E7E1185A1C302081F892
:101720004300224494F8451082F843100233C7E77F
:101730000123224641463846C8470130E6D00136EB
:10174000D9E700002DE9FF470F7E0C9E782F9146C8
:1017500080460C469A4601F1430207D8622F0AD808
:10176000002F00F0DD80582F00F0C38004F1420606
:1017700084F842703AE0A7F16303152BF6D801A173
:1017800051F823F0DD170008F11700086D17000865
:101790006D1700086D1700086D170008F117000895
:1017A0006D1700086D1700086D1700086D17000809
:1017B000071900087F180008BF1800086D170008F7
:1017C0006D170008291900086D1700087F18000818
:1017D0006D1700086D170008C718000833681A1D38
:1017E0001B68326004F1420684F842300123A8E00D
:1017F00031682368081D30601E0601D50D6803E0BE
:101800005D06FBD5B1F900506168002D78DA2D2016
:10181000002984F84300A1602DDA5E486D420A2356
:101820001646B5FBF3F103FB1157C75D06F8017DC2
:101830002F46BB420D46F4D9082B0BD12368DF0796
:1018400008D5236961689942DEBF302306F8013C60
:1018500006F1FF36921B2261CDF800A04B4603AA89
:1018600021464046FFF700FF01306FD14FF0FF30B7
:1018700004B0BDE8F08723F004032360CDE72168BE
:101880003368080653F8045B02D4490648BFADB27A
:101890006F2F4048336014BF0A230823002184F8C7
:1018A00043106668A660002EBADB216821F00401AF
:1018B0002160002DB4D1002EB2D11646BCE72368BA
:1018C00043F0200323603448782784F84570236868
:1018D00031681F0651F8045B02D45F0648BFADB201
:1018E0003160D90744BF43F0200323601DB11023AA
:1018F000D4E72848E9E7236823F020032360F6E7CC
:1019000024480A23CDE7336825686169181D3060D3
:101910002E061B6801D5196002E06806FBD5198008
:1019200000232361164697E733681A1D32601E684C
:10193000626800213046FEF73BFC08B1801B606006
:1019400063682361002384F8433085E723693246C6
:1019500049464046D047013088D023689B0714D4BD
:10196000E068039B9842B8BF184681E701233246DE
:1019700049464046D04701303FF478AF0135E3682F
:1019800003995B1AAB42F1DCEAE7002504F1190682
:10199000F5E700BFB11D0008C21D0008884210B560
:1019A00001EB020402D98442234607D8431EA14218
:1019B00008D011F8012B03F8012FF8E70244014683
:1019C0008A4200D110BD13F8014D02F8014DF7E72E
:1019D00038B5064D0023044608462B6000F04CF84D
:1019E000431C02D12B6803B1236038BD00020020E4
:1019F0000A44914200F1FF3300D1704710B511F84D
:101A0000014B03F8014F9142F9D110BD2DE9F0418E
:101A1000804615460C4621B9BDE8F0411146FFF756
:101A200047BC2AB9FFF7D8FB00242046BDE8F08167
:101A300000F01AF88542064602D8B5EB500FF4D8EC
:101A400029464046FFF734FC07460028ECD0B54253
:101A50002A46214628BF3246FFF7CAFF21464046A4
:101A6000FFF7BAFB3C46E0E751F8043C181F002B97
:101A7000BCBF0B58C0187047044A05491368002BB7
:101A800008BF0B461844106018467047100200202B
:101A9000180200202DE9F047089D0C46002B4ED17E
:101AA00094468C458646B2FA82F262D94AB1C2F1B6
:101AB0002003914020FA03F30CFA02FC194300FAC8
:101AC00002FE4FEA1C471FFA8CF6B1FBF7F44FEA0F
:101AD0001E4307FB141143EA014304FB06F199423C
:101AE0000AD91CEB030304F1FF3080F01381994203
:101AF00040F21081023C6344591A1FFA8EF3B1FB85
:101B0000F7F007FB101143EA014300FB06F69E4283
:101B10000AD91CEB030300F1FF3180F0FD809E42E7
:101B200040F2FA80634402389B1B40EA04400021E3
:101B30001DB1D3400022C5E90032BDE8F0878B42D9
:101B400005D90DB1C5E9000100210846F5E7B3FA52
:101B500083F1002946D1A34202D39042C0F0F18024
:101B6000861A64EB03030120002DE6D0C5E900636B
:101B7000E3E7002A40F09180A1EB0C044FEA1C48F7
:101B80001FFA8CF70121B4FBF8F64FEA1E4308FB5D
:101B9000164443EA044307FB06F0984208D91CEBBD
:101BA000030306F1FF3402D2984200F2CE802646AB
:101BB0001C1A1FFA8EF3B4FBF8F008FB104443EA3A
:101BC000044300FB07F79F4208D91CEB030300F115
:101BD000FF3402D29F4200F2B1802046DB1B40EA74
:101BE0000640A5E7C1F120068B4022FA06F71F4305
:101BF00020FA06FC04FA01F343EA0C03F44000FA6D
:101C000001F8380C4FEA1349B4FBF0FE1FFA87FCC9
:101C100000FB1E4449EA04440EFB0CF9A14502FAFC
:101C200001F20AD93C190EF1FF3A80F08580A145F6
:101C300040F28280AEF1020E3C44A4EB09041FFA8C
:101C400083F9B4FBF0F300FB134449EA044403FBBB
:101C50000CFCA44507D93C1903F1FF3068D2A44518
:101C600066D9023B3C4443EA0E40A0FB0293A4EB3E
:101C70000C049C42CE469C4652D34FD055B1B8EB93
:101C80000E0364EB0C0404FA06F6CB40CC401E4372
:101C9000C5E900640021BDE8F087C2F1200320FA05
:101CA00003F10CFA02FC24FA03F394400C434FEACC
:101CB0001C4800FA02FE1FFA8CF7B3FBF8F008FB91
:101CC0001031230C43EA014300FB07F1994208D984
:101CD0001CEB030300F1FF362CD299422AD90238BB
:101CE00063445B1AA4B2B3FBF8F108FB113344EA76
:101CF000034401FB07F3A34208D91CEB040401F1E0
:101D0000FF3613D2A34211D902396444E41A41EADE
:101D1000004138E70446EFE6084605E7C845ADD27E
:101D2000B9EB020E63EB070C0138A7E73146EDE78C
:101D3000034698E73046D4E7D6467EE76344023848
:101D40004CE70646234608460EE7023E63442FE76B
:101D5000F8B500BFF8BC08BC9E467047F8B500BF98
:081D6000F8BC08BC9E46704768
:101D6800253032643A253032643A253032640D0A1F
:101D780000000000253032642D253032642D3230C9
:101D8800253032640D0A0000000000000000000049
:101D98000102030406070809232D302B2000686C74
:101DA8004C00656667454647003031323334353676
:101DB80037383941424344454600303132333435AF
:0C1DC800363738396162636465660000DC
:081DD400C0FCFF7F01000000CC
:041DDC00A902000850
:041DE0008502000870
:101DE4000024F40001000000100000001000002096
:101DF40000000000C80000203001002098010020ED
:101E040000000000000000000000000000000000CE
:101E140000000000000000000000000000000000BE
:101E240000000000000000000000000000000000AE
:0C1E3400000000000000000000000000A2
:04000005080010E9F6
:00000001FF
